S0190000586D61735F547265655F58747265656D652E737265634A
S11300000C947A010C94FD020C9497010C949701C2
S11300100C9497010C9497010C9497010C9415037C
S11300200C9497010C9497010C9487020C949701FB
S11300300C9497010C9422020C944E020C94970198
S11300400C9497010C9497010C9497010C949701CC
S11300500C949701AA02AC02AE02B002B202B4023E
S1130060B602B802B632D432F03221333D335C33B7
S11300707C339633B233CE33EB3305347534783472
S11300807B3493349A34A034A534AA34AD34B334D5
S1130090B634BB340000000000000000FFFFFFFF87
S11300A0FFFFFFFFC39999999999C3FFE7C7E7E752
S11300B0E7E7E7FFC399F9F3E7CF81FFC399F9E3D2
S11300C0F999C3FFF3E3C39381F3F3FF819F83F9AA
S11300D0F999C3FFE3CF9F839999C3FF81F9F9F39A
S11300E0E7E7E7FFC39999C39999C3FFC39999C1F6
S11300F0F9F3C7FFE7C39999998199FF87BBBBBB04
S113010087BBBB87C3993F3F3F99C3FF87939999A7
S1130110999387FF819F9F879F9F81FF819F9F87DF
S11301209F9F9FFFC3993F3F3199C1FF999999813F
S1130130999999FFE7E7E7E7E7E7E7FFF9F9F9F9BD
S11301409999C3FF99999387939999FF9F9F9F9F2B
S11301509F9F818139110101293939FF39190921F9
S1130160313939FFC39999999999C3FF839999832F
S11301709F9F9FFFC399999991C3F1FF8399998395
S1130180939999FFC3998FC7F199C3FF81E7E7E773
S1130190E7E7E7FF999999999999C1FF99999999ED
S11301A099C3E7FF39393929011139FF9999C3E70F
S11301B0C39999FF999999C3E7E7E7FF01F9F3E731
S11301C0CF9F01FFFFFFC3F9C199C5FF9F9F9F8385
S11301D09999A3FFFFFFC3999F99C3FFF9F9F9C147
S11301E09999C5FFFFFFC399819FC3FFE3C9CF87D7
S11301F0CFCFCFFFFFFFC59999C1F9C39F9F9389C3
S1130200999999FFE7E7FFE7E7E7E7FFF3FFF3F3E0
S1130210F33333879F9F9993879399FFE7E7E7E742
S1130220E7E7E7FFFFFF3911012939FFFFFF839952
S1130230999999FFFFFFC3999999C3FFFFFFA39968
S113024099839F9FFFFFC59999C1F9F9FFFFA3897E
S11302509F9F9FFFFFFFC19FC3F983FFCFCF83CF32
S1130260CFCBE7FFFFFF99999999C5FFFFFF9999B4
S113027099C3E7FFFFFF3929010193FFFFFF39937A
S1130280C79339FFFFFF999999C1F9C3FFFF81F320
S1130290E7CF81FF817E5A7E42667E81FFE7C3DB22
S11302A0DBDBDBC3FFE7C3DBDBDBC3C3FFE7C3DBB2
S11302B0DBC3C3C3FFE7C3DBC3C3C3C3FFE7C3C31A
S11302C0C3C3C3C3FFFFFFFFFFFFFEFFFCF8F1E35F
S11302D0C78F1F3FFFFFFFC3C3FFFFFF9914949411
S11302E0949499FF99119999999999FFB126BEBC53
S11302F0B9B3A0FF11241FBECFE5D8E0DEBFCDBF48
S113030011E0A0E6B0E0E0E5FDE602C005900D9244
S1130310A83AB107D9F722E0A8EAB1E001C01D92DA
S1130320A139B207E1F70E941F340C94A6360C944D
S11303300000E82FE695E695E695F0E0EC5EFD4FCB
S1130340877021E030E0A90102C0440F551F8A954F
S1130350E2F7CA019081892B80830895E82FE695FE
S1130360E695E695F0E0EC5EFD4F877021E030E025
S1130370A90102C0440F551F8A95E2F7CA0180956E
S1130380908189238083089580E090E02FEFFC0121
S1130390FF27EC5EFD4F2083019682319105B9F76A
S11303A0089580E090E0FC01FF27EC5EFD4F108291
S11303B0019682319105B9F70895E82FF0E0EC5EDB
S11303C0FD4F60830895E82FF0E0EC5EFD4F10824E
S11303D00895E6E2F2E084E192E048E03291242FCD
S11303E0959833230CF4959A330F9698969A215046
S11303F0B9F7E817F90791F79498949A08958D9AA4
S11304008E9A8C9A9598969A949A0E94D1010E94F9
S1130410E901089587B1806C87B986B1846886B98B
S1130420089597B1892B87B9369A349BFECF349AB5
S113043084B195B1089587B18F7387B986B18D77EB
S113044086B908951F920F920FB60F9211242F931D
S11304508F939F93EF93FF938BB12CB18871E091AD
S1130460AA01EF5FEF719091A901E91739F0E093C8
S1130470AA01F0E0E355FE4F208301C082E0909191
S1130480A801892B8093A801FF91EF919F918F91EF
S11304902F910F900FBE0F901F9018951F920F92DF
S11304A00FB60F9211248F939F93EF93FF93909124
S11304B0AC018091AB01981761F0E091AB01EF5F63
S11304C0EF71E093AB01F0E0E353FE4F80818CB910
S11304D001C05598FF91EF919F918F910F900FBE9E
S11304E00F901F9018951092AC011092AB011092CE
S11304F0AA011092A90199231CF422E02BB99F7739
S113050090BD89B988E98AB986E880BD08951F92AB
S11305100F920FB60F9211242F938F939F93AF9343
S1130520BF93EF93FF9385B315BAE091ED01F0E02B
S1130530EE0FFF1FEC50FE4F8081918188BB8091AC
S1130540ED0190E088309105A0F4FC01E65DFF4FD9
S11305500C94B635AF9A0DC0AE9A0BC0AD9A09C0D3
S1130560AC9A07C0AB9A05C0AA9A03C0A99A01C065
S1130570A89A8091ED018F5F8093ED018091ED0148
S1130580883010F01092ED0180913D0290913E026E
S1130590019690933E0280933D0280913D0290919A
S11305A03E02883E934009F4D99880913D0290918F
S11305B03E028C34944009F4D99A80913D02909182
S11305C03E02823E944009F4D99880913D02909174
S11305D03E028634954029F4D99A10923E02109234
S11305E03D02FF91EF91BF91AF919F918F912F9118
S11305F00F900FBE0F901F9018951F920F920FB679
S11306000F9211240F900FBE0F901F90189580E049
S113061090E0FC01EE0FFF1FEC50FE4F11821082A0
S1130620019688309105A9F708951F920F920FB68D
S11306300F9211242F933F934F935F936F937F9364
S11306408F939F93AF93BF93EF93FF9360917B023C
S113065070917C0280917D0290917E0220E030E0D6
S113066040E85FE30E94C13460937B0270937C0294
S113067080937D0290937E02CE9B09C08091650297
S11306809091660201969093660280936502809130
S11306905D028F5F80935D02809138028F5F80934B
S11306A038028091F2019091F30101969093F30145
S11306B08093F20180912802909129020C97A1F471
S11306C08091F2019091F3018036994068F0109284
S11306D0F3011092F2018091F0019091F1010196E1
S11306E09093F1018093F001CB9903C081E0809352
S11306F04402809144028130A9F4CB9B13C0109230
S11307002702109226021092440210928D02109237
S11307108C028091280290912902019690932902DB
S113072080932802CA9903C081E080934502809196
S113073045028130E1F4CA9B1AC080918C029091E9
S11307408D02893C910598F410922702109226029A
S113075010928D0210928C02109245028091280210
S11307609091290201979093290280932802CE9BAD
S113077009C080916502909166028436910510F05B
S11307800E940703CB9909C0809126029091270209
S113079001969093270280932602CA9909C08091FA
S11307A026029091270201969093270280932602B5
S11307B0CB990FC0CA990DC010922702109226023D
S11307C080918C0290918D02019690938D0280937A
S11307D08C0280918C0290918D02883C9105D8F016
S11307E0D998CB9910C0CA9B16C0109227021092B8
S11307F0260280917402909175020196909375027D
S11308008093740208C010928D0210928C02109290
S1130810750210927402FF91EF91BF91AF919F9175
S11308208F917F916F915F914F913F912F910F9095
S11308300FBE0F901F90189580E090E02FEF30E0EE
S1130840FC01EE0FFF1FEC50FE4F31832083019615
S113085088309105A9F7089590ED980F9A3010F417
S11308608E5208959FEB980F9A3110F48553089592
S11308709FE9980F9A3110F48B5308958E3259F0F2
S113088010F0885E08958D3210F0855E08958032F0
S113089020F08F51089586E4089581E00895EF9241
S11308A0FF920F931F93CF93DF937C01EB01FB0126
S11308B001900020E9F73197E61BF70BEE0FFF1FBD
S11308C0EE0FFF1FEE0FFF1F8E179F0708F075C076
S11308D00E940703870116950795169507951695A7
S11308E00795FE01E00FF11D80810E942C04182F52
S11308F00F5FC00FD11D88810E942C04212F30E08E
S1130900A901440F551F440F551F440F551F4C5642
S11309105F4F082F10E0021B130B000F111F000F75
S1130920111F000F111F20E030E0CFEFD0E0C7010E
S113093087709927A8E0B0E0A81BB90BF901EE0F66
S1130940FF1FEC50FE4FD183C08360817181FA0197
S1130950F490EF2DF0E0082E02C0EE0FFF1F0A9472
S1130960E2F7E095F0956E237F23F901EE0FFF1F68
S1130970EC50FE4F7183608360817181FA01E00F56
S1130980F11FE491F0E00A2E02C0F595E7950A9470
S1130990E2F7E095F0956E237F23F901EE0FFF1F38
S11309A0EC50FE4F718360832F5F3F4F4F5F5F4F6B
S11309B02031310509F0C2CF0FC080E090E02FEF65
S11309C030E0FC01EE0FFF1FEC50FE4F318320831B
S11309D0019688309105A9F7DF91CF911F910F916E
S11309E0FF90EF90089528E0829FC001112420E039
S11309F030E08C569F4FFC01E20FF31FE491F0E0CE
S1130A00E095F095D901AA0FBB1FAC50BE4F1196CB
S1130A10FC93EE932F5F3F4F2830310561F7089523
S1130A20EF92FF920F931F93CF93DF93CDB7DEB76F
S1130A3063970FB6F894DEBF0FBECDBFD99A83E19A
S1130A40E6E7F0E0DE01119601900D928A95E1F758
S1130A5000E010E0CE0101967C010FC0B701C8018F
S1130A600E944F049FEF21EE84E09150204080408B
S1130A70E1F700C000000F5F1F4FF7010190002055
S1130A80E9F73197EE19FF09EE0FFF1FEE0FFF1F75
S1130A90EE0FFF1F0E171F0708F363960FB6F894A7
S1130AA0DEBF0FBECDBFDF91CF911F910F91FF909D
S1130AB0EF9008950E94D1010E94E90108952F92B8
S1130AC03F924F925F926F927F928F929F92AF92DA
S1130AD0BF92CF92DF92EF92FF920F931F93CF9327
S1130AE0DF93CDB7DEB761970FB6F894DEBF0FBEC4
S1130AF0CDBF0E9407030E945A05D99A89B78F7EF9
S1130B0089BF81E1E9E8F0E0DE01119601900D92E0
S1130B108A95E1F700E010E0CE0101967C010FC058
S1130B20B701C8010E944F049FEFE3EFF1E0915039
S1130B30E040F040E1F700C000000F5F1F4FF701F5
S1130B4001900020E9F73197EE19FF09EE0FFF1F1E
S1130B50EE0FFF1FEE0FFF1F0E171F0708F30E9473
S1130B60C4010E94E901CB9B04C00E94D101CB992E
S1130B70FCCF0E94E9012FEF83ED90E321508040E8
S1130B809040E1F700C000006AEA80E00E94DD01C5
S1130B906AEA81E00E94DD016AEA82E00E94DD01E6
S1130BA06AEA83E00E94DD016AEA84E00E94DD01D2
S1130BB06AEA85E00E94DD016AEA86E00E94DD01BE
S1130BC06AEA87E00E94DD016AEA88E00E94DD01AA
S1130BD06AEA89E00E94DD016AEA8AE00E94DD0196
S1130BE06AEA8BE00E94DD016AEA8CE00E94DD0182
S1130BF06AEA8DE00E94DD016AEA8EE00E94DD016E
S1130C006AEA8FE00E94DD016AEA80E10E94DD0168
S1130C106AEA81E10E94DD010E94E901CB9B04C0E4
S1130C200E94D101CB99FCCF0E94E901EFEFF3EDD3
S1130C3020E3E150F0402040E1F700C00000CB9BEE
S1130C400DC00E941C048FEF93ECE9E081509040AA
S1130C50E040E1F700C00000CB99F3CFD99A0E949D
S1130C600703FFEF23ED80E3F15020408040E1F7DC
S1130C7000C000000F2EF4EFAF2EF1E0BF2EF02DD8
S1130C800F2EF6EFCF2EF1E0DF2EF02D0F2EF8EF22
S1130C906F2EF1E07F2EF02D0F2EFAEF4F2EF1E0A4
S1130CA05F2EF02D0F2EFCEF2F2EF1E03F2EF02DB6
S1130CB0DCC0F501F182E082FFEF21EE84E0F15027
S1130CC020408040E1F700C000000E940703EE0CC2
S1130CD0FF1C015011090115110559F708E010E036
S1130CE06894EE24E7F8F12CF601F182E082FFEF3C
S1130CF021EE84E0F15020408040E1F700C0000084
S1130D000E940703F694E794015011090115110597
S1130D1059F708E010E0EE24E394F12CF301F1829A
S1130D20E082FFEF21EE84E0F15020408040E1F7C3
S1130D3000C000000E940703EE0CFF1C01501109C3
S1130D400115110559F708E010E06894EE24E7F85E
S1130D50F12CF201F182E082FFEF21EE84E0F15008
S1130D6020408040E1F700C000000E940703F69491
S1130D70E794015011090115110559F708E010E035
S1130D80EE24E394F12CF101F182E082FFEF21EEF5
S1130D9084E0F15020408040E1F700C000000E9450
S1130DA00703EE0CFF1C015011090115110559F739
S1130DB008E010E06894EE24E7F8F12CEEEFF1E09F
S1130DC0F182E082FFEF21EE84E0F1502040804088
S1130DD0E1F700C000000E940703F694E794015075
S1130DE011090115110551F708E010E0EE24E39410
S1130DF0F12C0F2EF0E08F2EF2E09F2EF02DF40157
S1130E00F182E082FFEF21EE84E0F1502040804047
S1130E10E1F700C000000E940703EE0CFF1C015024
S1130E2011090115110559F708E010E06894EE2442
S1130E30E7F8F12C0F2EF2E08F2EF2E09F2EF02D2A
S1130E40F401F182E082FFEF21EE84E0F1502040D2
S1130E508040E1F700C000000E940703F694E79485
S1130E60015011090115110559F7CB9B06C008E083
S1130E7010E0EE24E394F12C1CCF89B7806189BF84
S1130E8010928D0210928C0261960FB6F894DEBF18
S1130E900FBECDBFDF91CF911F910F91FF90EF90C7
S1130EA0DF90CF90BF90AF909F908F907F906F9086
S1130EB05F904F903F902F900895EF92FF920F9381
S1130EC01F93CF93DF93CDB7DEB72D970FB6F8946A
S1130ED0DEBF0FBECDBF0E945A05D99A10924402BC
S1130EE01092450289B78F7E89BF87E0EAE9F0E076
S1130EF0DE01119601900D928A95E1F700E010E071
S1130F00CE0101967C010FC0B701C8010E944F04B5
S1130F109FEF21EE84E0915020408040E1F700C033
S1130F2000000F5F1F4FF70101900020E9F7319790
S1130F30EE19FF09EE0FFF1FEE0FFF1FEE0FFF1F4D
S1130F400E171F0708F39FEF21EE84E09150204015
S1130F508040E1F700C000000E940703DC980E9473
S1130F601B0285B78F78806285BF8AB31ABA81B3B2
S1130F7011BA8BB780648BBF8AEF95B7906895BF21
S1130F808150D9F7889585B78F7785BF8AEF9AB353
S1130F9092619ABB8150D9F784B38FEF84BB97B326
S1130FA087BB8F9A979ADC9A0E940A020E94FF01DB
S1130FB08BB78F7B8BBF10927B0210927C021092B6
S1130FC07D0210927E021092270210922602109245
S1130FD066021092650286E0E1EAF0E0DE0118960E
S1130FE001900D928A95E1F700E010E07E0198E00F
S1130FF0E90EF11C0FC0B701C8010E944F042FEF86
S113100081EE94E0215080409040E1F700C0000060
S11310100F5F1F4FF70101900020E9F73197EE1998
S1131020FF09EE0FFF1FEE0FFF1FEE0FFF1F0E173E
S11310301F0708F389B7806189BF20912802309186
S1131040290280915E0290915F0228173907B9F452
S113105004E110E00E941E36B8010E94A2350A96EF
S113106090935F0280935E022091280230912902BE
S113107080915E0290915F022817390759F32D96EB
S11310800FB6F894DEBF0FBECDBFDF91CF911F9195
S11310900F91FF90EF9008950F931F93CF93DF93D9
S11310A08C01EB01209128023091290280915E028B
S11310B090915F022817390799F181E090E09093AD
S11310C0710080937000809128029091290290937E
S11310D05F0280935E02609128027091290280E091
S11310E090E00E9436360E945A0510923A021092FD
S11310F0390282E090E0909364028093630210923C
S1131100660210926502109243021092420280918C
S11311102802909129020C9719F086E00E94F304AA
S113112080915602909157020196909357028093B2
S113113056028091390290913A02019690933A02B4
S11311408093390220917000309171002F30310565
S113115031F481E090E090936402809363022091E3
S11311607000309171002130310531F482E090E05B
S1131170909364028093630220916302309164022D
S113118021303105A1F48091390290913A028017FF
S1131190910769F410923A0210923902809170001A
S11311A090917100019790937100809370008091E9
S11311B06302909164020297A1F4809139029091A4
S11311C03A028C179D0769F410923A021092390280
S11311D080917000909171000196909371008093BA
S11311E070008091560290915702CC9768F010924B
S11311F05702109256028091700090917100892BD1
S113120081F00E94C4010DC0209156023091570212
S113121080917000909171002817390710F00E9496
S1131220D1010E94E901DF91CF911F910F9108959F
S1131230AF92BF92CF92DF92EF92FF920F931F93E0
S1131240CF93DF93B82ED62EF42E122FA09128021E
S1131250B0912902E0915E02F0915F02AE17BF07E0
S113126009F4C3C080915602909157028091710293
S1131270909172028091840290918502109283026F
S1131280109282020E945A058091280290912902AC
S113129090935F0280935E0260912802709129020C
S11312A080E090E00E943636809175008091740051
S11312B0809173008091720080912C0280915C0275
S11312C08091900280917A0280913702809160022D
S11312D08091330280913F0280914C0280914D02B3
S11312E0809141028091320210926602109265024E
S11312F0109259021092580281E090E090934B02B0
S113130080934A0282E090E0909387028093860261
S113131083E090E090933502809334028CE090E077
S113132090936202809361028DE090E090938B022F
S113133080938A028EE090E0909349028093480261
S11313408FE090E090935B0280935A0288E490E0EF
S113135090932B0280932A0289E490E090935502A3
S1131360809354028AE490E0909351028093500257
S11313708BE490E0909347028093460284E590E0EA
S113138090936E0280936D0285E590E090932F0216
S113139080932E0286E590E090936C0280936B021A
S11313A087E590E090936802809367020E941E365E
S11313B0C6E0D0E0BE010E94A2358F5F8093400258
S11313C00E941E36BE010E94A2358F5F80932D02BB
S11313D01092430210924202E0912802F0912902F5
S11313E03C9719F085E00E94F304809175008F5FAB
S11313F080937500809174008F5F80937400809156
S113140073008F5F80937300809172008F5F80936D
S1131410720080912C028F5F80932C0280915C0279
S11314208F5F80935C02809190028F5F8093900223
S113143080917A028F5F80937A029091400280912A
S11314407302981709F43BC18091400280937302A0
S113145080914002833009F46FC028F4813061F038
S11314608230C9F12CC1853009F4C8C008F495C094
S1131470863009F4F4C023C1109259021092580224
S113148081E090E090934B0280934A0282E090E0E6
S1131490909387028093860283E090E090933502D4
S11314A0809334028CE090E0909362028093610216
S11314B08DE090E090938B0280938A028EE090E01E
S11314C090934902809348028FE090E090935B02EE
S11314D080935A02F4C088E190E09093590280937B
S11314E0580289E190E090934B0280934A028AE18A
S11314F090E090938702809386028BE190E0909332
S113150035028093340284E290E0909362028093E7
S1131510610285E290E090938B0280938A0286E2D6
S113152090E0909349028093480287E290E0909380
S11315305B0280935A02C3C080E390E09093590207
S11315408093580281E390E090934B0280934A0287
S113155082E390E0909387028093860283E390E095
S113156090933502809334028CE390E0909362026E
S1131570809361028DE390E090938B0280938A02C2
S11315808EE390E090934902809348028FE390E0C9
S113159090935B0280935A0292C088E490E0909307
S11315A059028093580289E490E090934B0280930F
S11315B04A028AE490E090938702809386028BE447
S11315C090E0909335028093340284E590E0909308
S11315D062028093610285E590E090938B02809390
S11315E08A0286E590E0909349028093480287E559
S11315F090E090935B0280935A0261C080E690E091
S1131600909359028093580281E690E090934B02A4
S113161080934A0282E690E0909387028093860248
S113162083E690E090933502809334028CE690E058
S113163090936202809361028DE690E090938B0216
S113164080938A028EE690E0909349028093480248
S11316508FE690E090935B0280935A0230C088E753
S113166090E0909359028093580289E790E0909318
S11316704B0280934A028AE790E09093870280931A
S113168086028BE790E0909335028093340284E8DD
S113169090E0909362028093610285E890E09093D9
S11316A08B0280938A0286E890E0909349028093AB
S11316B0480287E890E090935B0280935A02E0919D
S11316C05802F0915902EC33F10529F134F4EC306D
S11316D0F10569F0B497A9F045C0EC36F10579F14C
S11316E0E438F105B1F1E435F105E1F51EC00E94DD
S11316F01E3666E070E00E94A2358F5F8093400240
S113170031C00E941E3666E070E00E94A2358F5FF1
S11317108093400227C00E941E3666E070E00E945B
S1131720A2358F5F809340021DC00E941E3666E082
S113173070E00E94A2358F5F8093400213C00E9424
S11317401E3666E070E00E94A2358F5F80934002EF
S113175009C00E941E3666E070E00E94A2358F5FC9
S11317608093400280914002833009F434C130F404
S1131770813069F0823009F49CC08FC3853009F44C
S11317805AC208F4BEC1863009F4EFC286C3809100
S11317905802909159020C9764F4809175008B1152
S11317A008C080915802909159020E9499011092A8
S11317B0750080914A0290914B020C9764F48091D9
S11317C074008D1108C080914A0290914B020E94CE
S11317D099011092740080918602909187020C976F
S11317E060F4809173008F1108C0809186029091FB
S11317F087020E94990110927300809134029091A3
S113180035020C9760F480917200811308C08091B6
S11318103402909135020E949901109272008091D5
S1131820610290916202489760F480912C028013C7
S113183008C080916102909162020E949901109205
S11318402C0280918A0290918B02489760F48091D7
S11318505C028E1108C080918A0290918B020E94D2
S1131860990110925C028091480290914902489734
S113187060F4809190028C1108C08091480290918C
S113188049020E9499011092900280915A0290910B
S11318905B02489708F001C380917A028A11FDC265
S11318A080915A0290915B020E94990110927A02EF
S11318B0F4C28091580290915902849764F4809103
S11318C075008B1108C080915802909159020E94B2
S11318D099011092750080914A0290914B0284976D
S11318E064F4809174008D1108C080914A02909133
S11318F04B020E949901109274008091860290918B
S11319008702849760F4809173008F1108C08091DE
S11319108602909187020E9499011092730080912F
S1131920340290913502849760F48091720081139F
S113193008C080913402909135020E94990110925E
S113194072008091610290916202C09760F480916C
S11319502C02801308C080916102909162020E945F
S1131960990110922C0280918A0290918B02C09767
S113197060F480915C028E1108C080918A0290917B
S11319808B020E94990110925C028091480290910E
S11319904902C09760F4809190028C1108C0809134
S11319A04802909149020E949901109290028091FC
S11319B05A0290915B02C09708F06FC280917A023C
S11319C08A116BC280915A0290915B020E94990124
S11319D010927A0262C28091580290915902CC9777
S11319E064F4809175008B1108C080915802909125
S11319F059020E9499011092750080914A029091B7
S1131A004B02CC9764F4809174008D1108C08091CE
S1131A104A0290914B020E949901109274008091A5
S1131A20860290918702CC9760F4809173008F11A5
S1131A3008C080918602909187020E9499011092B9
S1131A4073008091340290913502CC9760F48091B8
S1131A507200811308C080913402909135020E9473
S1131A60990110927200809161029091620288340F
S1131A70910560F480912C02801308C0809161026A
S1131A80909162020E94990110922C0280918A0224
S1131A9090918B028834910560F480915C028E11E0
S1131AA008C080918A0290918B020E949901109241
S1131AB05C0280914802909149028834910560F457
S1131AC0809190028C1108C0809148029091490243
S1131AD00E9499011092900280915A0290915B02A7
S1131AE08834910508F0D9C180917A028A11D5C150
S1131AF080915A0290915B020E94990110927A029D
S1131B00CCC180915802909159028435910564F4B6
S1131B10809175008B1108C08091580290915902F0
S1131B200E9499011092750080914A0290914B0293
S1131B308435910564F4809174008D1108C08091FE
S1131B404A0290914B020E94990110927400809174
S1131B508602909187028435910560F48091730028
S1131B608F1108C080918602909187020E9499018A
S1131B70109273008091340290913502843591055E
S1131B8060F480917200811308C0809134029091B6
S1131B9035020E9499011092720080916102909125
S1131BA062028036910560F480912C02801308C093
S1131BB080916102909162020E94990110922C021C
S1131BC080918A0290918B028036910560F4809115
S1131BD05C028E1108C080918A0290918B020E944F
S1131BE0990110925C0280914802909149028036DA
S1131BF0910560F4809190028C1108C08091480294
S1131C00909149020E9499011092900280915A0287
S1131C1090915B028036910508F03FC180917A0271
S1131C208A113BC180915A0290915B020E949901F2
S1131C3010927A0232C180915802909159028C36E6
S1131C40910564F4809175008B1108C0809158024D
S1131C50909159020E9499011092750080914A0254
S1131C6090914B028C36910564F4809174008D112F
S1131C7008C080914A0290914B020E9499011092EF
S1131C80740080918602909187028C36910560F4ED
S1131C90809173008F1108C0809186029091870211
S1131CA00E94990110927300809134029091350240
S1131CB08C36910560F480917200811308C0809184
S1131CC03402909135020E94990110927200809121
S1131CD06102909162028837910560F480912C0230
S1131CE0801308C080916102909162020E94990160
S1131CF010922C0280918A0290918B028837910570
S1131D0060F480915C028E1108C080918A029091E7
S1131D108B020E94990110925C028091480290917A
S1131D2049028837910560F4809190028C1108C0B3
S1131D3080914802909149020E9499011092900268
S1131D4080915A0290915B028837910508F0A5C0F2
S1131D5080917A028A11A1C080915A0290915B020B
S1131D600E94990110927A0298C080915802909131
S1131D7059028438910564F4809175008B1108C070
S1131D8080915802909159020E9499011092750015
S1131D9080914A0290914B028438910564F48091B9
S1131DA074008D1108C080914A0290914B020E94E8
S1131DB09901109274008091860290918702843870
S1131DC0910560F4809173008F1108C080918602A0
S1131DD0909187020E9499011092730080913402BD
S1131DE0909135028438910560F4809172008113DA
S1131DF008C080913402909135020E94990110929A
S1131E00720080916102909162028039910560F4C0
S1131E1080912C02801308C080916102909162022B
S1131E200E94990110922C0280918A0290918B0257
S1131E308039910560F480915C028E1108C0809114
S1131E408A0290918B020E94990110925C02809107
S1131E504802909149028039910560F48091900282
S1131E608C1108C080914802909149020E94990106
S1131E701092900280915A0290915B0280399105F0
S1131E8060F480917A028A1108C080915A0290917C
S1131E905B020E94990110927A02809158029091FB
S1131EA059028039910531F488EE93E090935902F8
S1131EB08093580280914A0290914B028039910597
S1131EC031F488EE93E090934B0280934A02809120
S1131ED08602909187028039910531F488EE93E06F
S1131EE09093870280938602809134029091350208
S1131EF08039910531F488EE93E090933502809314
S1131F00340280916102909162028039910531F42A
S1131F1088EE93E0909362028093610280918A023A
S1131F2090918B028039910531F488EE93E090937F
S1131F308B0280938A0280914802909149028039F1
S1131F40910531F488EE93E090934902809348021E
S1131F5080915A0290915B028039910531F488EEA8
S1131F6093E090935B0280935A020E94E90180916E
S1131F705802909159020E94AE0180914A029091B8
S1131F804B020E94AE0180918602909187020E94CA
S1131F90AE0180913402909135020E94AE0180918D
S1131FA06102909162020E94AE0180918A02909136
S1131FB08B020E94AE0180914802909149020E94D6
S1131FC0AE0180915A0290915B020E94AE01809111
S1131FD056029091570201969093570280935602AD
S1131FE08091710290917202019690937202809393
S1131FF07102209171023091720280916600909179
S1132000670028173907E1F40E941E3660EA7FE072
S11320100E94A2358C509E4F909367008093660077
S113202010927202109271020E941E366CEB72E0E2
S11320300E94A23588539F4F90936B0080936A004F
S1132040209156023091570280916A0090916B0062
S11320502817390708F44CC0109257021092560200
S1132060809158029091590201969093590280935D
S1132070580280914A0290914B02019690934B0230
S113208080934A02809186029091870201969093F0
S113209087028093860280913402909135020196E2
S11320A09093350280933402809161029091620290
S11320B00196909362028093610280918A029091CA
S11320C08B02019690938B0280938A02809148023E
S11320D0909149020196909349028093480280911D
S11320E05A0290915B02019690935B0280935A028C
S11320F0DF91CF911F910F91FF90EF90DF90CF90E0
S1132100BF90AF900895AF92CF92EF92FF920F934A
S11321101F93CF93DF93F82E162FD42FC22F8091C5
S113212037028F5F80933702809160028F5F8093C4
S11321306002809133028F5F8093330280913F026B
S11321408F5F80933F0280914C028F5F80934C029B
S113215080914D028F5F80934D02809141028F5F89
S113216080934102809132028F5F8093320290917A
S11321702D0280918102981709F43BC180912D02B0
S11321808093810280912D02833009F46FC028F47A
S1132190813061F08230C9F12CC1853009F4C8C0A6
S11321A008F495C0863009F4F4C023C110922B02C0
S11321B010922A0281E090E0909355028093540299
S11321C082E090E0909351028093500283E090E08B
S11321D090934702809346028CE090E090936E02C5
S11321E080936D028DE090E090932F0280932E02F5
S11321F08EE090E090936C0280936B028FE090E00D
S11322009093680280936702F4C088E190E0909311
S11322102B0280932A0289E190E0909355028093E7
S113222054028AE190E090935102809350028BE132
S113223090E0909347028093460284E290E090936A
S11322406E0280936D0285E290E090932F0280935A
S11322502E0286E290E090936C0280936B0287E2F8
S113226090E09093680280936702C3C080E390E09B
S113227090932B0280932A0281E390E0909355027D
S11322808093540282E390E0909351028093500231
S113229083E390E090934702809346028CE390E0BE
S11322A090936E0280936D028DE390E090932F02E1
S11322B080932E028EE390E090936C0280936B02E5
S11322C08FE390E0909368028093670292C088E461
S11322D090E090932B0280932A0289E490E09093FB
S11322E05502809354028AE490E0909351028093C3
S11322F050028BE490E0909347028093460284E579
S113230090E090936E0280936D0285E590E0909347
S11323102F0280932E0286E590E090936C028093C6
S11323206B0287E590E0909368028093670261C036
S113233080E690E090932B0280932A0281E690E05D
S1132340909355028093540282E690E09093510258
S11323508093500283E690E0909347028093460274
S11323608CE690E090936E0280936D028DE690E08F
S113237090932F0280932E028EE690E090936C024D
S113238080936B028FE690E09093680280936702DB
S113239030C088E790E090932B0280932A0289E76B
S11323A090E090935502809354028AE790E09093D2
S11323B05102809350028BE790E090934702809300
S11323C0460284E890E090936E0280936D0285E863
S11323D090E090932F0280932E0286E890E09093F1
S11323E06C0280936B0287E890E09093680280937C
S11323F06702E0912A02F0912B02EC33F10529F1F6
S113240030F4EC30F10569F0B497A9F045C0EC362E
S1132410F10579F1E438F105B1F1E435F105E1F5BF
S11324201EC00E941E3666E070E00E94A2358F5FD7
S113243080932D0231C00E941E3666E070E00E9437
S1132440A2358F5F80932D0227C00E941E3666E05E
S113245070E00E94A2358F5F80932D021DC00E9400
S11324601E3666E070E00E94A2358F5F80932D02D5
S113247013C00E941E3666E070E00E94A2358F5F92
S113248080932D0209C00E941E3666E070E00E940F
S1132490A2358F5F80932D0280912D02833009F441
S11324A034C130F4813069F0823009F49CC08FC3A8
S11324B0853009F45AC208F4BEC1863009F4EFC26B
S11324C086C380912A0290912B020C9760F480912C
S11324D037028F1108C080912A0290912B020E942A
S11324E099011092370280915402909155020C97F1
S11324F060F480916002811308C08091540290912D
S113250055020E94990110926002809150029091AC
S113251051020C9760F4809133028D1308C08091AE
S11325205002909151020E949901109233028091BD
S11325304602909147020C9760F480913F028C13FD
S113254008C080914602909147020E94990110921E
S11325503F0280916D0290916E02489760F48091E1
S11325604C02801308C080916D0290916E020E940B
S1132570990110924C0280912E0290912F0248975B
S113258060F480914D028E1108C080912E029091CA
S11325902F020E94990110924D0280916B0290913A
S11325A06C02489760F4809141028C1108C08091BC
S11325B06B0290916C020E949901109241028091E9
S11325C0670290916802489708F001C38091320233
S11325D08A11FDC280916702909168020E9499015C
S11325E010923202F4C280912A0290912B028497B5
S11325F060F4809137028F1108C080912A02909173
S11326002B020E94990110923702809154029091FA
S11326105502849760F480916002811308C0809110
S11326205402909155020E94990110926002809187
S1132630500290915102849760F4809133028D137B
S113264008C080915002909151020E949901109209
S113265033028091460290914702849760F48091FE
S11326603F028C1308C080914602909147020E9459
S1132670990110923F0280916D0290916E02C09771
S113268060F480914C02801308C080916D02909197
S11326906E020E94990110924C0280912E02909138
S11326A02F02C09760F480914D028E1108C0809172
S11326B02E0290912F020E94990110924D02809156
S11326C06B0290916C02C09760F4809141028C116E
S11326D008C080916B0290916C020E949901109243
S11326E041028091670290916802C09708F06FC21E
S11326F0809132028A116BC28091670290916802C4
S11327000E9499011092320262C280912A02909131
S11327102B02CC9760F4809137028F1108C080910E
S11327202A0290912B020E94990110923702809103
S1132730540290915502CC9760F480916002811309
S113274008C080915402909155020E949901109200
S113275060028091500290915102CC9760F4809174
S113276033028D1308C080915002909151020E944F
S11327709901109233028091460290914702CC97BE
S113278060F480913F028C1308C0809146029091BE
S113279047020E94990110923F0280916D0290912C
S11327A06E028834910560F480914C02801308C055
S11327B080916D0290916E020E94990110924C02D8
S11327C080912E0290912F028834910560F48091BB
S11327D04D028E1108C080912E0290912F020E940A
S11327E0990110924D0280916B0290916C02883491
S11327F0910560F4809141028C1108C080916B02B4
S113280090916C020E94990110924102809167029A
S1132810909168028834910508F0D9C18091320200
S11328208A11D5C180916702909168020E94990132
S113283010923202CCC180912A0290912B028435ED
S1132840910560F4809137028F1108C080912A02AB
S113285090912B020E9499011092370280915402A8
S1132860909155028435910560F480916002811342
S113287008C080915402909155020E9499011092CF
S1132880600280915002909151028435910560F468
S1132890809133028D1308C08091500290915102AF
S11328A00E9499011092330280914602909147024E
S11328B08435910560F480913F028C1308C08091A7
S11328C04602909147020E94990110923F02809122
S11328D06D0290916E028036910560F480914C02F5
S11328E0801308C080916D0290916E020E9499013C
S11328F010924C0280912E0290912F028036910505
S113290060F480914D028E1108C080912E02909146
S11329102F020E94990110924D0280916B029091B6
S11329206C028036910560F4809141028C1108C0DC
S113293080916B0290916C020E9499011092410265
S113294080916702909168028036910508F03FC13A
S1132950809132028A113BC1809167029091680292
S11329600E9499011092320232C120912A023091C0
S11329702B022C36310560F4809137028F1108C088
S113298080912A0290912B020E94990110923702A1
S113299080915402909155028C36910560F4809197
S11329A06002811308C080915402909155020E94E4
S11329B099011092600280915002909151028C36DC
S11329C0910560F4809133028D1308C08091500208
S11329D0909151020E949901109233028091460213
S11329E0909147028C36910560F480913F028C13DC
S11329F008C080914602909147020E94990110926A
S1132A003F0280916D0290916E028837910560F4C7
S1132A1080914C02801308C080916D0290916E02E7
S1132A200E94990110924C0280912E0290912F02E3
S1132A308837910560F480914D028E1108C0809111
S1132A402E0290912F020E94990110924D028091C2
S1132A506B0290916C028837910560F48091410279
S1132A608C1108C080916B0290916C020E949901B4
S1132A701092410280916702909168028837910513
S1132A8008F0A5C0809132028A11A1C0809167022A
S1132A90909168020E9499011092320298C020918C
S1132AA02A0230912B022438310560F480913702D8
S1132AB08F1108C080912A0290912B020E949901E3
S1132AC010923702809154029091550284389105F6
S1132AD060F480916002811308C080915402909147
S1132AE055020E94990110926002809150029091C7
S1132AF051028438910560F4809133028D1308C02B
S1132B0080915002909151020E94990110923302D7
S1132B1080914602909147028438910560F4809137
S1132B203F028C1308C080914602909147020E9494
S1132B30990110923F0280916D0290916E0280394A
S1132B40910560F480914C02801308C080916D025D
S1132B5090916E020E94990110924C0280912E0273
S1132B6090912F028039910560F480914D028E116D
S1132B7008C080912E0290912F020E949901109218
S1132B804D0280916B0290916C028039910560F442
S1132B90809141028C1108C080916B0290916C026B
S1132BA00E949901109241028091670290916802FB
S1132BB08039910560F4809132028A1108C08091B5
S1132BC06702909168020E949901109232028091EA
S1132BD02A0290912B028039910531F488E893E11F
S1132BE090932B0280932A02809154029091550273
S1132BF08039910531F488E893E1909355028093EC
S1132C00540280915002909151028039910531F41F
S1132C1088E893E190935102809350028091460298
S1132C20909147028039910531F488E893E19093BB
S1132C3047028093460280916D0290916E02803922
S1132C40910531F488E893E190936E0280936D02CC
S1132C5080912E0290912F028039910531F488E8F9
S1132C6093E190932F0280932E0280916B029091B6
S1132C706C028039910531F488E893E190936C02F9
S1132C8080936B028091670290916802803991056C
S1132C9031F488E893E190936802809367020E947C
S1132CA0E90180912A0290912B020E94AE01809149
S1132CB05402909155020E94AE018091500290916D
S1132CC051020E94AE0180914602909147020E94F7
S1132CD0AE0180916D0290916E020E94AE018091CE
S1132CE02E0290912F020E94AE0180916B0290916E
S1132CF06C020E94AE0180916702909168020E946A
S1132D00AE01809184029091850201969093850290
S1132D108093840280918202909183020196909321
S1132D2083028093820220918202309183028091F7
S1132D3064009091650028173907E1F40E941E365B
S1132D4060EA7FE00E94A2358C509E4F909365000C
S1132D508093640010928302109282020E941E36B5
S1132D606CEB72E00E94A23588539F4F90936900E8
S1132D7080936800209184023091850280916800DC
S1132D80909169002817390708F44CC01092850205
S1132D901092840280912A0290912B0201969093C2
S1132DA02B0280932A02809154029091550201963D
S1132DB09093550280935402809150029091510255
S1132DC00196909351028093500280914602909113
S1132DD047020196909347028093460280916D02C8
S1132DE090916E02019690936E0280936D02809191
S1132DF02E0290912F02019690932F0280932E021F
S1132E0080916B0290916C02019690936C02809376
S1132E106B02809167029091680201969093680218
S1132E2080936702DF91CF911F910F91FF90EF90F4
S1132E30CF90AF900895209128023091290280917B
S1132E405E0290915F022817390709F457C08091F8
S1132E5028029091290290935F0280935E02609110
S1132E6028027091290280E090E00E94363688E0C2
S1132E708093750091E09093740090937300809315
S1132E80720080932C0210923A021092390210922E
S1132E9053021092520210924F0210924E0210925C
S1132EA0800210927F02109279021092780210929E
S1132EB057021092560210927202109271021092EE
S1132EC08502109284021092830210928202109260
S1132ED03C0210923B020E945A0510926602109224
S1132EE0650210924302109242028091280290914E
S1132EF029020C9719F083E00E94F3048091560292
S1132F0090915702019690935702809356028091B4
S1132F1071029091720201969093720280937102F1
S1132F20809184029091850201969093850280930A
S1132F30840280918202909183020196909383028D
S1132F408093820280913B0290913C02019690937F
S1132F503C0280933B028091390290913A0201969F
S1132F6090933A02809339028091520290915302D5
S1132F700196909353028093520280914E02909155
S1132F804F02019690934F0280934E0280917F02EC
S1132F909091800201969093800280937F028091A9
S1132FA07802909179020196909379028093780245
S1132FB080917500883031F481E090E09093640250
S1132FC08093630280917500813031F482E090E057
S1132FD090936402809363028091630290916402EF
S1132FE0019781F48091390290913A028C34944093
S1132FF049F410923A02109239028091750081507E
S1133000809375008091630290916402029781F429
S11330108091390290913A028C34944049F4109290
S11330203A0210923902809175008F5F8093750087
S113303080915602909157028B34910508F461C037
S1133040109257021092560280917500882309F459
S1133050BAC080E00E94990185E00E9499018AE04B
S11330600E9499018FE00E94990184E10E949901D4
S113307089E10E9499018EE10E94990183E20E94F4
S1133080990188E20E9499018DE20E94990182E3EC
S11330900E94990187E30E9499018CE30E9499019F
S11330A081E40E94990186E40E9499018BE40E94C4
S11330B0990180E50E94990185E50E9499018AE5BC
S11330C00E9499018FE50E94990184E60E9499016A
S11330D089E60E9499018EE60E94990183E70E9485
S11330E0990188E70E9499018DE70E94990182E87D
S11330F00E94990187E80E9499018CE80E94990135
S113310062C020917500809156029091570230E080
S11331102817390709F057C080E00E94AE0185E006
S11331200E94AE018AE00E94AE018FE00E94AE01CF
S113313084E10E94AE0189E10E94AE018EE10E9409
S1133140AE0183E20E94AE0188E20E94AE018DE2EC
S11331500E94AE0182E30E94AE0187E30E94AE01A9
S11331608CE30E94AE0181E40E94AE0186E40E94D9
S1133170AE018BE40E94AE0180E50E94AE0185E5BC
S11331800E94AE018AE50E94AE018FE50E94AE0165
S113319084E60E94AE0189E60E94AE018EE60E949A
S11331A0AE0183E70E94AE0188E70E94AE018DE77D
S11331B00E94AE0182E80E94AE0187E80E94AE013F
S11331C08CE80E94AE0180917400883031F481E073
S11331D090E09093890280938802809174008130FA
S11331E031F482E090E09093890280938802809188
S11331F0880290918902019781F480915202909102
S113320053028C3B924049F41092530210925202A2
S11332108091740081508093740080918802909111
S11332208902029781F480915202909153028C3B5F
S1133230924049F410925302109252028091740009
S11332408F5F8093740080917102909172028B342D
S1133250910508F461C0109272021092710280917B
S11332607400882309F4BAC081E00E94990186E0C1
S11332700E9499018BE00E94990180E10E949901CA
S113328085E10E9499018AE10E9499018FE10E94DF
S1133290990184E20E94990189E20E9499018EE2D7
S11332A00E94990183E30E94990188E30E94990195
S11332B08DE30E94990182E40E94990187E40E94AF
S11332C099018CE40E94990181E50E94990186E5A7
S11332D00E9499018BE50E94990180E60E94990160
S11332E085E60E9499018AE60E9499018FE60E9470
S11332F0990184E70E94990189E70E9499018EE768
S11333000E94990183E80E94990188E80E9499012A
S11333108DE80E94990162C020917400809171022D
S11333209091720230E02817390709F057C081E004
S11333300E94AE0186E00E94AE018BE00E94AE01C5
S113334080E10E94AE0185E10E94AE018AE10E9403
S1133350AE018FE10E94AE0184E20E94AE0189E2D7
S11333600E94AE018EE20E94AE0183E30E94AE0190
S113337088E30E94AE018DE30E94AE0182E40E94C4
S1133380AE0187E40E94AE018CE40E94AE0181E5A7
S11333900E94AE0186E50E94AE018BE50E94AE015B
S11333A080E60E94AE0185E60E94AE018AE60E9494
S11333B0AE018FE60E94AE0184E70E94AE0189E768
S11333C00E94AE018EE70E94AE0183E80E94AE0126
S11333D088E80E94AE018DE80E94AE0180917300DE
S11333E0883030F081E090E090938F0280938E02D9
S11333F080917300823030F482E090E090938F02E9
S113340080938E0280918E0290918F02019781F4B5
S113341080914E0290914F028438934049F4109267
S11334204F0210924E02809173008150809373007A
S113343080918E0290918F02029781F480914E02C6
S113344090914F028438934049F410924F021092A5
S11334504E02809173008F5F809373008091840289
S1133460909185028B34910508F461C01092850215
S11334701092840280917300882309F4BAC082E018
S11334800E94990187E00E9499018CE00E949901B1
S113349081E10E94990186E10E9499018BE10E94D9
S11334A0990180E20E94990185E20E9499018AE2D1
S11334B00E9499018FE20E94990184E30E9499017C
S11334C089E30E9499018EE30E94990183E40E949A
S11334D0990188E40E9499018DE40E94990182E592
S11334E00E94990187E50E9499018CE50E94990147
S11334F081E60E94990186E60E9499018BE60E946A
S1133500990180E70E94990185E70E9499018AE761
S11335100E9499018FE70E94990184E80E94990111
S113352089E80E9499018EE80E94990162C0209165
S11335307300809184029091850230E02817390746
S113354009F057C082E00E94AE0187E00E94AE01FC
S11335508CE00E94AE0181E10E94AE0186E10E94EE
S1133560AE018BE10E94AE0180E20E94AE0185E2D1
S11335700E94AE018AE20E94AE018FE20E94AE0177
S113358084E30E94AE0189E30E94AE018EE30E94AF
S1133590AE0183E40E94AE0188E40E94AE018DE492
S11335A00E94AE0182E50E94AE0187E50E94AE0151
S11335B08CE50E94AE0181E60E94AE0186E60E947F
S11335C0AE018BE60E94AE0180E70E94AE0185E762
S11335D00E94AE018AE70E94AE018FE70E94AE010D
S11335E084E80E94AE0189E80E94AE018EE80E9440
S11335F0AE0180917200883030F081E090E09093C9
S11336006A028093690280917200823030F482E011
S113361090E090936A02809369028091690290918C
S11336206A02019781F480917F029091800288352B
S1133630924049F41092800210927F0280917200AD
S11336408150809372008091690290916A0202977E
S113365081F480917F02909180028835924049F4F0
S11336601092800210927F02809172008F5F80938B
S1133670720080918202909183028B34910508F448
S113368061C010928302109282028091720088239A
S113369009F4BAC083E00E94990188E00E9499016C
S11336A08DE00E94990182E10E94990187E10E94C4
S11336B099018CE10E94990181E20E94990186E2BC
S11336C00E9499018BE20E94990180E30E94990172
S11336D085E30E9499018AE30E9499018FE30E9485
S11336E0990184E40E94990189E40E9499018EE47D
S11336F00E94990183E50E94990188E50E9499013D
S11337008DE50E94990182E60E94990187E60E9454
S113371099018CE60E94990181E70E94990186E74C
S11337200E9499018BE70E94990180E80E94990107
S113373085E80E9499018AE80E9499018FE80E9415
S1133740990162C02091720080918202909183025B
S113375030E02817390709F057C083E00E94AE0112
S113376088E00E94AE018DE00E94AE0182E10E94D9
S1133770AE0187E10E94AE018CE10E94AE0181E2BC
S11337800E94AE0186E20E94AE018BE20E94AE016D
S113379080E30E94AE0185E30E94AE018AE30E94A9
S11337A0AE018FE30E94AE0184E40E94AE0189E47D
S11337B00E94AE018EE40E94AE0183E50E94AE0138
S11337C088E50E94AE018DE50E94AE0182E60E946A
S11337D0AE0187E60E94AE018CE60E94AE0181E74D
S11337E00E94AE0186E70E94AE018BE70E94AE0103
S11337F080E80E94AE0185E80E94AE018AE80E943A
S1133800AE018FE80E94AE0180912C02883030F026
S113381081E090E0909377028093760280912C026D
S1133820823030F482E090E09093770280937602C5
S11338308091760290917702019781F480917802C9
S1133840909179028032934049F410927902109257
S1133850780280912C02815080932C028091760210
S113386090917702029781F4809178029091790285
S11338708032934049F41092790210927802809138
S11338802C028F5F80932C0280913B0290913C022A
S11338908B34910508F45EC010923C0210923B02F6
S11338A080912C02882309F4B4C084E00E94990119
S11338B089E00E9499018EE00E94990183E10E94AF
S11338C0990188E10E9499018DE10E94990182E2A7
S11338D00E94990187E20E9499018CE20E94990159
S11338E081E30E94990186E30E9499018BE30E947F
S11338F0990180E40E94990185E40E9499018AE477
S11339000E9499018FE40E94990184E50E94990123
S113391089E50E9499018EE50E94990183E60E943F
S1133920990188E60E9499018DE60E94990182E737
S11339300E94990187E70E9499018CE70E949901EE
S113394081E80E94990186E80E9499018BE80E940F
S113395099015FC020912C0280913B0290913C021E
S113396030E02817390709F054C084E00E94AE0102
S113397089E00E94AE018EE00E94AE0183E10E94C4
S1133980AE0188E10E94AE018DE10E94AE0182E2A7
S11339900E94AE0187E20E94AE018CE20E94AE0159
S11339A081E30E94AE0186E30E94AE018BE30E9494
S11339B0AE0180E40E94AE0185E40E94AE018AE477
S11339C00E94AE018FE40E94AE0184E50E94AE0124
S11339D089E50E94AE018EE50E94AE0183E60E9455
S11339E0AE0188E60E94AE018DE60E94AE0182E738
S11339F00E94AE0187E70E94AE018CE70E94AE01EF
S1133A0081E80E94AE0186E80E94AE018BE80E9424
S1133A10AE010E94E9010895CF93DF93209128021B
S1133A203091290280915E0290915F022817390734
S1133A30A9F1809128029091290290935F028093CA
S1133A405E02609128027091290280E090E00E9459
S1133A5036360E945A051092850210928402109202
S1133A6072021092710210923A021092390281E0AD
S1133A7090E090937100809370001092660210920F
S1133A8065021092430210924202809128029091A2
S1133A9029020C9719F084E00E94F30480917102CA
S1133AA090917202019690937202809371028091B8
S1133AB084029091850201969093850280938402FA
S1133AC08091390290913A02019690933A02809340
S1133AD039028091700090917100089731F481E06F
S1133AE090E09093640280936302809170009091BF
S1133AF07100019731F482E090E090936402809326
S1133B0063028091630290916402019799F4809119
S1133B10390290913A02892B69F010923A0210927C
S1133B203902809170009091710001979093710017
S1133B30809370008091630290916402029709F06F
S1133B408DC08091390290913A02892B09F486C084
S1133B5010923A0210923902809170009091710093
S1133B600196909371008093700078C08091560202
S1133B709091570201969093570280935602809138
S1133B805602909157028436910568F010925702BC
S1133B90109256028091700090917100892B81F0EF
S1133BA00E94C4010DC020915602309157028091A9
S1133BB07000909171002817390710F00E94D1010C
S1133BC00E94E901219680916C0090916D008C1700
S1133BD09D0760F6209171023091720280916E000F
S1133BE090916F0028173907F8F010927202109222
S1133BF071020E941E3687709078992324F40197ED
S1133C00886F9F6F0196019690936F0080936E006A
S1133C100E941E3660E273E00E94A23588539F4FD3
S1133C2090936D0080936C00809184029091850242
S1133C300597D8F010928502109284020E941E36D5
S1133C4081709078992324F401978E6F9F6F019669
S1133C500196909364028093630207C080916C0084
S1133C6090916D00C0E0D0E081CFDF91CF910895B5
S1133C701F93CF93DF93EC01162F209128023091EC
S1133C80290280915E0290915F022817390709F496
S1133C9071C00E945A058091280290912902909344
S1133CA05F0280935E02609128027091290280E095
S1133CB090E00E94363610925702109256021092EB
S1133CC072021092710210925902109258028CE002
S1133CD090E090934B0280934A0288E190E09093A5
S1133CE087028093860284E290E090933502809369
S1133CF0340280E390E090936202809361028CE34B
S1133D0090E090938B0280938A0288E490E09093F1
S1133D1049028093480284E590E090935B0280938B
S1133D205A0280E690E090932B0280932A028CE65C
S1133D3090E0909355028093540288E790E090932A
S1133D4051028093500284E890E09093470280935C
S1133D50460210926602109265021092430210927B
S1133D60420280912802909129020C9719F087E071
S1133D700E94F30480915602909157020196909309
S1133D8057028093560280917102909172020196BB
S1133D90909372028093710280915602909157021F
S1133DA0CC9708F454C01092570210925602809196
S1133DB0700090917100892B09F49BC08091580286
S1133DC0909159020E94990180914A0290914B026C
S1133DD00E94990180918602909187020E94990124
S1133DE080913402909135020E9499018091610280
S1133DF0909162020E94990180918A0290918B02B3
S1133E000E94990180914802909149020E9499016F
S1133E1080915A0290915B020E94990180912A023A
S1133E2090912B020E949901809154029091550225
S1133E300E94990180915002909151020E9499012F
S1133E4080914602909147020E94990152C080914C
S1133E50560290915702212F30E02817390709F0B4
S1133E6048C080915802909159020E94AE018091FD
S1133E704A0290914B020E94AE0180918602909179
S1133E8087020E94AE0180913402909135020E9413
S1133E90AE0180916102909162020E94AE01809114
S1133EA08A0290918B020E94AE0180914802909107
S1133EB049020E94AE0180915A0290915B020E94D5
S1133EC0AE0180912A0290912B020E94AE01809152
S1133ED05402909155020E94AE018091500290913B
S1133EE051020E94AE0180914602909147020E94C5
S1133EF0AE010E94E90180917102909172028C17C7
S1133F009D0709F072C00E94D101109272021092B2
S1133F10710280915802909159020196909359022E
S1133F208093580280914A0290914B02019690939B
S1133F304B0280934A0280918602909187020196F7
S1133F409093870280938602809134029091350287
S1133F50019690933502809334028091610290918E
S1133F6062020196909362028093610280918A02B8
S1133F7090918B02019690938B0280938A02809198
S1133F804802909149020196909349028093480215
S1133F9080915A0290915B02019690935B02809308
S1133FA05A0280912A0290912B02019690932B023F
S1133FB080932A0280915402909155020196909325
S1133FC055028093540280915002909151020196BF
S1133FD0909351028093500280914602909147023F
S1133FE001969093470280934602809146029091F5
S1133FF047028039910509F046C010925902109287
S113400058028CE090E090934B0280934A0288E13E
S113401090E0909387028093860284E290E09093EC
S113402035028093340280E390E09093620280939F
S113403061028CE390E090938B0280938A0288E47F
S113404090E0909349028093480284E590E0909335
S11340505B0280935A0280E690E090932B02809357
S11340602A028CE690E0909355028093540288E7EC
S113407090E0909351028093500284E890E09093F2
S1134080470280934602DF91CF911F910895CF9309
S1134090DF93EC01209128023091290280915E0285
S11340A090915F0228173907A9F180912802909115
S11340B0290290935F0280935E02609128027091BE
S11340C0290280E090E00E9436360E945A05109240
S11340D059021092580210925702109256021092EE
S11340E072021092710288E090E0909371008093C4
S11340F070001092660210926502109243021092B0
S1134100420280912802909129020C9719F088E0CC
S11341100E94F30420915602309157022F5F3F4FC3
S1134120309357022093560220917102309172020B
S11341302F5F3F4F309372022093710220915802F7
S1134140309159022439310509F46EC0ACF4213997
S1134150310509F442C03CF42115310531F120390F
S1134160310571F1BBC02239310509F443C023394B
S1134170310509F44CC0B2C02739310509F47BC0BC
S11341804CF42539310509F45CC02639310509F4AC
S113419065C0A4C02939310509F487C00CF478C07E
S11341A02A39310509F48EC099C01092590210922F
S11341B058028CE090E090934B0280934A028EC0A8
S11341C081E090E090935902809358028DE090E052
S11341D090934B0280934A0281C082E090E09093D6
S11341E05902809358028EE090E090934B028093A2
S11341F04A0274C083E090E090935902809358027D
S11342008FE090E090934B0280934A0267C084E071
S113421090E0909359028093580280E190E090934B
S11342204B0280934A025AC085E090E09093590271
S11342308093580281E190E090934B0280934A026C
S11342404DC086E090E0909359028093580282E139
S113425090E090934B0280934A0240C087E090E044
S1134260909359028093580283E190E090934B021B
S113427080934A0233C088E090E09093590280937F
S1134280580284E190E090934B0280934A0226C046
S113429089E090E0909359028093580285E190E080
S11342A090934B0280934A0219C08AE090E0909365
S11342B059028093580286E190E090934B028093D8
S11342C04A020CC08BE090E090935902809358020C
S11342D087E190E090934B0280934A0280915602CA
S11342E090915702CC97B8F0109257021092560250
S11342F08091700090917100892B21F18091580276
S1134300909159020E94990180914A0290914B0226
S11343100E94990117C02091560230915702809152
S11343207000909171002817390761F48091580248
S1134330909159020E94AE0180914A0290914B02E1
S11343400E94AE010E94E901809171029091720273
S11343508C179D0710F180915802909159020E9488
S1134360AE0180914A0290914B020E94AE0180916D
S11343704A0290914B02489690934B0280934A02D2
S113438080915802909159024896909359028093D3
S11343905802109272021092710280915802909108
S11343A059028B39910524F0109259021092580247
S11343B080914A0290914B02873A910524F0109221
S11343C04B0210924A02DF91CF910895CF93DF936D
S11343D0EC01209128023091290280915E02909193
S11343E05F022817390709F459C080912802909177
S11343F0290290935F0280935E026091280270917B
S1134400290280E090E00E9436360E945A051092FC
S113441059021092580281E090E090934B028093ED
S11344204A0282E090E0909387028093860289E0BA
S113443090E090933502809334028AE090E0909368
S11344406202809361028BE090E090938B028093F0
S11344508A02109257021092560288E090E09093DC
S11344607100809370001092720210927102109287
S113447066021092650210924302109242028091E9
S1134480280290912902079749F48091280290917B
S113449029020C9719F089E00E94F30480915602D6
S11344A090915702019690935702809356028091FF
S11344B0710290917202019690937202809371023C
S11344C08091560290915702CC97B0F11092570206
S11344D0109256028091700090917100892B09F41A
S11344E05AC080915802909159026FEF0E94DD01E9
S11344F080914A0290914B026FEF0E94DD018091FE
S11345008602909187026FEF0E94DD018091340250
S1134510909135026FEF0E94DD01809161029091CC
S113452062026FEF0E94DD0180918A0290918B02FA
S11345306FEF0E94DD012FC0209156023091570287
S113454080917000909171002817390720F18091B3
S11345505802909159020E94E30180914A0290917D
S11345604B020E94E30180918602909187020E948F
S1134570E30180913402909135020E94E30180911D
S11345806102909162020E94E30180918A029091FB
S11345908B020E94E3010E94E901809171029091D3
S11345A072028C179D07E0F10E94D10110927202F1
S11345B0109271028091580290915902039690933F
S11345C059028093580280914A0290914B020396BB
S11345D090934B0280934A028091860290918702C5
S11345E0039690938702809386028091340290917F
S11345F035020396909335028093340280916102D0
S1134600909162020396909362028093610280917A
S11346108A0290918B02039690938B0280938A0274
S11346208091580290915902429781F41092590254
S11346301092580281E090E090934B0280934A02DA
S113464082E090E090938702809386028091340206
S113465090913502429781F41092350210923402FF
S113466081E090E0909362028093610282E090E0A6
S113467090938B0280938A02DF91CF9108952091C9
S113468028023091290280915E0290915F022817DE
S1134690390709F460C0809128029091290290930F
S11346A05F0280935E02609128027091290280E08B
S11346B090E00E9436360E945A05109259021092D8
S11346C0580281E090E090934B0280934A0282E08A
S11346D090E0909387028093860289E090E0909323
S11346E03502809334028AE090E0909362028093D2
S11346F061028BE090E090938B0280938A0288EBB6
S11347009BE090936B0080936A0081E08093360273
S1134710109257021092560288E090E09093710034
S113472080937000109272021092710210928502AE
S11347301092840210926602109265021092430253
S11347401092420280912802909129020C9719F04C
S113475089E40E94F30480915602909157020196D5
S11347609093570280935602809171029091720245
S113477001969093720280937102809184029091C9
S1134780850201969093850280938402809156025B
S113479090915702CC97B0F11092570210925602A2
S11347A08091700090917100892B09F45AC0809116
S11347B05802909159026FEF0E94DD0180914A02E4
S11347C090914B026FEF0E94DD01809186029091DF
S11347D087026FEF0E94DD018091340290913502CF
S11347E06FEF0E94DD0180916102909162026FEF90
S11347F00E94DD0180918A0290918B026FEF0E94EA
S1134800DD012FC020915602309157028091700033
S1134810909171002817390720F1809158029091E6
S113482059020E94E30180914A0290914B020E9436
S1134830E30180918602909187020E94E3018091B6
S11348403402909135020E94E301809161029091BB
S113485062020E94E30180918A0290918B020E947D
S1134860E3010E94E90180916A0090916B008D320E
S1134870914018F482E08093360280916A0090910E
S11348806B00843C994018F081E08093360280915B
S11348903602813099F480918402909185020A97BE
S11348A068F0109285021092840280916A009091BF
S11348B06B00019790936B0080936A00809136029D
S11348C0823099F480918402909185020A9768F06D
S11348D0109285021092840280916A0090916B007C
S11348E0019690936B0080936A002091710230913D
S11348F0720280916A0090916B0028173907E0F1E9
S11349000E94D10110927202109271028091580299
S11349109091590203969093590280935802809182
S11349204A0290914B02039690934B0280934A0261
S113493080918602909187020396909387028093D8
S11349408602809134029091350203969093350249
S11349508093340280916102909162020396909355
S113496062028093610280918A0290918B02039685
S113497090938B0280938A028091580290915902FD
S1134980429781F4109259021092580281E090E00B
S113499090934B0280934A0282E090E090938702C6
S11349A0809386028091340290913502429781F47B
S11349B0109235021092340281E090E090936202EA
S11349C08093610282E090E090938B0280938A024C
S11349D008951F93CF93DF93EC01162F20912802A3
S11349E03091290280915E0290915F022817390765
S11349F009F465C0809128029091290290935F0286
S1134A0080935E02609128027091290280E090E018
S1134A100E9436360E945A0510925902109258028A
S1134A2081E090E090934B0280934A0282E090E010
S1134A30909387028093860286E090E090933502FB
S1134A408093340287E090E0909362028093610245
S1134A5088E090E090938B0280938A028CE090E04F
S1134A6090934902809348028DE090E090935B021A
S1134A7080935A028EE090E090932B0280932A0256
S1134A801092570210925602109272021092710202
S1134A90612F70E070937100609370001092660251
S1134AA010926502109243021092420280912802F1
S1134AB0909129020C9719F08BE00E94F3048091E5
S1134AC05602909157020196909357028093560292
S1134AD08091710290917202019690937202809378
S1134AE071028091710290917202C817D90708F47B
S1134AF09FC080915602909157028035910508F429
S1134B0054C01092570210925602809170009091F6
S1134B107100892B09F48AC06AEA80E00E94DD01F1
S1134B206AEA81E00E94DD016AEA82E00E94DD0116
S1134B306AEA83E00E94DD016AEA84E00E94DD0102
S1134B406AEA85E00E94DD016AEA86E00E94DD01EE
S1134B506AEA87E00E94DD016AEA88E00E94DD01DA
S1134B606AEA89E00E94DD016AEA8AE00E94DD01C6
S1134B706AEA8BE00E94DD016AEA8CE00E94DD01B2
S1134B806AEA8DE00E94DD016AEA8EE00E94DD019E
S1134B906AEA8FE00E94DD016AEA80E10E94DD0199
S1134BA06AEA81E10E94DD0141C020915602309100
S1134BB05702809170009091710028173907B1F560
S1134BC080E00E94E30181E00E94E30182E00E9410
S1134BD0E30183E00E94E30184E00E94E30185E0B5
S1134BE00E94E30186E00E94E30187E00E94E30162
S1134BF088E00E94E30189E00E94E3018AE00E94C8
S1134C00E3018BE00E94E3018CE00E94E3018DE06C
S1134C100E94E3018EE00E94E3018FE00E94E30121
S1134C2080E10E94E30181E10E94E3010E94E90125
S1134C3080917102909172028C179D0708F49FC0B5
S1134C4080915602909157028035910508F454C022
S1134C501092570210925602809170009091710048
S1134C60892B09F48AC065E580E00E94DD0165E5D1
S1134C7081E00E94DD0165E582E00E94DD0165E5D9
S1134C8083E00E94DD0165E584E00E94DD0165E5C5
S1134C9085E00E94DD0165E586E00E94DD0165E5B1
S1134CA087E00E94DD0165E588E00E94DD0165E59D
S1134CB089E00E94DD0165E58AE00E94DD0165E589
S1134CC08BE00E94DD0165E58CE00E94DD0165E575
S1134CD08DE00E94DD0165E58EE00E94DD0165E561
S1134CE08FE00E94DD0165E580E10E94DD0165E55C
S1134CF081E10E94DD0141C02091560230915702AA
S1134D00809170009091710028173907B1F580E007
S1134D100E94E30181E00E94E30182E00E94E3013A
S1134D2083E00E94E30184E00E94E30185E00E94A5
S1134D30E30186E00E94E30187E00E94E30188E04A
S1134D400E94E30189E00E94E3018AE00E94E301FA
S1134D508BE00E94E3018CE00E94E3018DE00E945D
S1134D60E3018EE00E94E3018FE00E94E30180E111
S1134D700E94E30181E10E94E3010E94E901809124
S1134D80710290917202CC0FDD1FC817D90721F46C
S1134D901092720210927102DF91CF911F910895C7
S1134DA00F931F93CF93DF938C01209128023091AE
S1134DB0290280915E0290915F022817390709F455
S1134DC089C0809128029091290290935F02809378
S1134DD05E02609128027091290280E090E00E94B6
S1134DE0363682E08093750084E08093740088E016
S1134DF0809373008BE08093720010923A021092B9
S1134E003902109253021092520210924F021092E1
S1134E104E021092800210927F0221E030E0309323
S1134E2064022093630282E090E09093890280936D
S1134E30880230938F0220938E0290936A028093AB
S1134E406902109257021092560210927202109246
S1134E5071021092850210928402109283021092C1
S1134E6082020E945A050E941E36CFE8D0E0BE019D
S1134E700E94A23590935902809358020E941E36D4
S1134E80BE010E94A23590934B0280934A020E9475
S1134E901E36BE010E94A23590938702809386023B
S1134EA00E941E36BE010E94A23590933502809363
S1134EB0340210926602109265021092430210921C
S1134EC0420280912802909129020C9719F08AE4F9
S1134ED00E94F304209158023091590280914A02B1
S1134EE090914B0228173907B1F4CFE8D0E00E9423
S1134EF01E36BE010E94A235909359028093580237
S1134F00209158023091590280914A0290914B02AB
S1134F102817390761F32091580230915902809182
S1134F2086029091870228173907B1F4CFE8D0E0C0
S1134F300E941E36BE010E94A235909359028093AE
S1134F405802209158023091590280918602909122
S1134F5087022817390761F32091580230915902CA
S1134F60809134029091350228173907B1F4CFE8C3
S1134F70D0E00E941E36BE010E94A23590935902D1
S1134F808093580220915802309159028091340242
S1134F90909135022817390761F320914A02309124
S1134FA04B02809186029091870228173907B1F449
S1134FB0CFE8D0E00E941E36BE010E94A235909335
S1134FC04B0280934A0220914A0230914B02809115
S1134FD08602909187022817390761F320914A02CB
S1134FE030914B0280913402909135022817390791
S1134FF0B1F4CFE8D0E00E941E36BE010E94A23573
S113500090934B0280934A0220914A0230914B02C2
S113501080913402909135022817390761F3209169
S113502086023091870280913402909135022817CC
S11350303907B1F4CFE8D0E00E941E36BE010E94C9
S1135040A235909387028093860240918602509104
S1135050870220913402309135024217530761F3DD
S11350608091560290915702019690935702809333
S1135070560280917102909172020196909372028D
S1135080809371028091840290918502019690939D
S1135090850280938402809182029091830201961A
S11350A090938302809382028091390290913A0214
S11350B0019690933A028093390280915202909122
S11350C053020196909353028093520280914E02B0
S11350D090914F02019690934F0280934E028091DB
S11350E07F029091800201969093800280937F02C8
S11350F0809175008C3030F081E090E090936402F0
S1135100809363028091630290916402019781F419
S11351108091390290913A028017910749F41092D4
S11351203A02109239028091750081508093750083
S11351308091630290916402029781F48091390214
S113514090913A028017910749F410923A02109212
S11351503902809175008F5F8093750080915602AB
S1135160909157028035910578F010925702109271
S11351705602809175008823B9F08091580290916D
S113518059020E94990110C0209175008091560225
S11351909091570230E08217930730F080915802C3
S11351A0909159020E94AE01809174008C3030F0CD
S11351B081E090E090938902809388028091880234
S11351C090918902019781F4809152029091530247
S11351D08017910749F41092530210925202809161
S11351E074008150809374008091880290918902A8
S11351F0029781F480915202909153028017910793
S113520049F41092530210925202809174008F5FFD
S1135210809374008091710290917202803591059F
S113522078F01092720210927102809174008823B7
S1135230B9F080914A0290914B020E94990110C0EA
S113524020917400809171029091720230E0821773
S1135250930730F080914A0290914B020E94AE0174
S1135260809173008C3030F081E090E090938F0255
S113527080938E0280918E0290918F02019781F427
S113528080914E0290914F028017910749F4109239
S11352904F0210924E0280917300815080937300EC
S11352A080918E0290918F02029781F480914E0238
S11352B090914F028017910749F410924F02109277
S11352C04E02809173008F5F8093730080918402FB
S11352D0909185028035910578F0109285021092A4
S11352E08402809173008823B9F0809186029091A2
S11352F087020E94990110C020917300809184025A
S11353009091850230E08217930730F080918602F5
S1135310909187020E94AE01809172008C3030F02F
S113532081E090E090936A0280936902809169021F
S113533090916A02019781F480917F02909180029A
S11353408017910748F01092800210927F0280919A
S113535072008150809372008091690290916A0278
S1135360029781F480917F029091800280179107C7
S113537048F01092800210927F02809172008F5F39
S1135380809372008091820290918302C29778F098
S11353901092830210928202809172008823B9F0E5
S11353A080913402909135020E94990110C020919D
S11353B07200809182029091830230E082179307F9
S11353C030F080913402909135020E94AE010E9427
S11353D0E90180917500811119C081E08093750005
S11353E082E090E09093640280936302809158027B
S11353F0909159020E94AE010E941E366FE870E03F
S11354000E94A235909359028093580280917400AF
S1135410811119C081E08093740082E090E0909340
S113542089028093880280914A0290914B020E94E3
S1135430AE010E941E366FE870E00E94A235909380
S11354404B0280934A0280917300811119C081E05C
S11354508093730082E090E090938F0280938E0299
S113546080918602909187020E94AE010E941E36AE
S11354706FE870E00E94A2359093870280938602C1
S113548080917200811119C081E08093720082E0E2
S113549090E090936A028093690280913402909123
S11354A035020E94AE010E941E366FE870E00E9431
S11354B0A2359093350280933402DF91CF911F91EE
S11354C00F91089580915D02843638F087E00E9440
S11354D011029093EF018093EE010895AF92BF9271
S11354E0DF92EF92FF920F931F93CF93DF93CDB789
S11354F0DEB72D970FB6F894DEBF0FBECDBF0E9466
S1135500622ACE9BB6C08091EE019091EF01873C58
S1135510924008F0AEC089B78F7E89BF0E945A05B9
S113552010926602109265021092310210923002BB
S113553081E40E94F3040F2EF4E8EF2EF3E0FF2E33
S1135540F02D0F2EFDE0DF2EF02D8E010F5F1F4F8B
S11355507BC080915D028F5F80935D020E94622A0E
S113556080913002909131020196909331028093A0
S113557030028FE99FE00197F1F700C000008091AD
S11355803002909131028C32914011F40E94070351
S11355908FE99FE00197F1F700C00000809130028D
S11355A0909131028835924039F410923102109270
S11355B0300281E40E94F304CE9904C0F092EF011A
S11355C0E092EE018091EE019091EF018D3B9240CB
S11355D0D8F589B78F7E89BF0E945A050E940703B8
S11355E0E7EAF0E0D8018D2D01900D928A95E1F75C
S11355F0A12CB12C10C0B801C5010E944F048FEF3B
S113560097EE23E0815090402040E1F700C0000075
S11356108FEFA81AB80AF80101900020E9F7319732
S1135620E01BF10BCF01880F991F880F991F880F7A
S1135630991FA816B906F8F289B7806189BF0E943C
S11356405D0789B78F7E89BF8091EE019091EF014C
S11356508132934008F47DCF0E94070310926602C2
S113566010926502109231021092300289B7806163
S113567089BFCE9946C0809142029091430201961F
S1135680909343028093420280914202909143029C
S11356900A9719F481E40E94F304809142029091E4
S11356A04302449719F482E40E94F3048091420275
S11356B0909143024E9719F483E40E94F30480917D
S11356C0420290914302889719F484E40E94F304FF
S11356D08091420290914302C29738F085E40E947F
S11356E0F304109243021092420210927B02109231
S11356F07C0210927D0210927E0210926602109239
S11357006502CD995FC089B78F7E89BF0E945A0513
S113571010926602109265021092310210923002C9
S113572085E40E94F3040F2EF9E5EF2EF02D689422
S1135730FF24F1F835C01092660210926502809140
S1135740300290913102019690933102809330029D
S11357508FE99FE00197F1F700C0000080913002CB
S1135760909131028C32914011F40E9407038FE929
S11357709FE00197F1F700C0000080913002909102
S113578031028835924039F410923102109230027D
S113579085E40E94F304015011090115110559F61D
S11357A0CD9903C00E2D1F2DC6CF0E940703109262
S11357B0660210926502109231021092300289B78B
S11357C0806189BF2D960FB6F894DEBF0FBECDBFA2
S11357D0DF91CF911F910F91FF90EF90DF90BF90D9
S11357E0AF9008958091260290912702803A910506
S11357F030F010922702109226020E945D0708954D
S1135800EF92FF920F931F93CF93DF93CDB7DEB741
S1135810A0970FB6F894DEBF0FBECDBF60917B0298
S113582070917C0280917D0290917E0220E030EAAA
S11358304CE058E40E942535811138C089B78F7E29
S113584089BF0E945A050E94070384E1E4EBF0E05B
S1135850DE01119601900D928A95E1F700E010E0C7
S1135860CE0101967C010FC0B701C8010E944F040C
S11358709FEF27EE83E0915020408040E1F700C085
S113588000000F5F1F4FF70101900020E9F73197E7
S1135890EE19FF09EE0FFF1FEE0FFF1FEE0FFF1FA4
S11358A00E171F0708F389B7806189BF60917B02D7
S11358B070917C0280917D0290917E0220E030EA1A
S11358C04CE858E40E942535811138C089B78F7E91
S11358D089BF0E945A050E94070384E1E8ECF0E0C6
S11358E0DE01119601900D928A95E1F700E010E037
S11358F0CE0101967C010FC0B701C8010E944F047C
S11359009FEF27EE83E0915020408040E1F700C0F4
S113591000000F5F1F4FF70101900020E9F7319756
S1135920EE19FF09EE0FFF1FEE0FFF1FEE0FFF1F13
S11359300E171F0708F389B7806189BF60917B0246
S113594070917C0280917D0290917E0220E030EF84
S113595042ED58E40E942535811138C089B78F7E05
S113596089BF0E945A050E94070383E1ECEDF0E031
S1135970DE01119601900D928A95E1F700E010E0A6
S1135980CE0101967C010FC0B701C8010E944F04EB
S11359909FEF27EE83E0915020408040E1F700C064
S11359A000000F5F1F4FF70101900020E9F73197C6
S11359B0EE19FF09EE0FFF1FEE0FFF1FEE0FFF1F83
S11359C00E171F0708F389B7806189BF60917B02B6
S11359D070917C0280917D0290917E0220E030EAF9
S11359E04CE059E40E942535811138C089B78F7E77
S11359F089BF0E945A050E94070383E1EFEEF0E09D
S1135A00DE01119601900D928A95E1F700E010E015
S1135A10CE0101967C010FC0B701C8010E944F045A
S1135A209FEF27EE83E0915020408040E1F700C0D3
S1135A3000000F5F1F4FF70101900020E9F7319735
S1135A40EE19FF09EE0FFF1FEE0FFF1FEE0FFF1FF2
S1135A500E171F0708F389B7806189BF60917B0225
S1135A6070917C0280917D0290917E0220E038EC5E
S1135A704FE259E40E942535811138C089B78F7EE1
S1135A8089BF0E945A050E94070383E1E2E0F1E026
S1135A90DE01119601900D928A95E1F700E010E085
S1135AA0CE0101967C010FC0B701C8010E944F04CA
S1135AB09FEF27EE83E0915020408040E1F700C043
S1135AC000000F5F1F4FF70101900020E9F73197A5
S1135AD0EE19FF09EE0FFF1FEE0FFF1FEE0FFF1F62
S1135AE00E171F0708F389B7806189BF60917B0295
S1135AF070917C0280917D0290917E0220E030EFD3
S1135B0042E559E40E942535811138C089B78F7E5A
S1135B1089BF0E945A050E94070383E1E5E1F1E091
S1135B20DE01119601900D928A95E1F700E010E0F4
S1135B30CE0101967C010FC0B701C8010E944F0439
S1135B409FEF27EE83E0915020408040E1F700C0B2
S1135B5000000F5F1F4FF70101900020E9F7319714
S1135B60EE19FF09EE0FFF1FEE0FFF1FEE0FFF1FD1
S1135B700E171F0708F389B7806189BF60917B0204
S1135B8070917C0280917D0290917E0220E038E148
S1135B9046E759E40E942535811138C089B78F7EC4
S1135BA089BF0E945A050E94070383E1E8E2F1E0FD
S1135BB0DE01119601900D928A95E1F700E010E064
S1135BC0CE0101967C010FC0B701C8010E944F04A9
S1135BD09FEF27EE83E0915020408040E1F700C022
S1135BE000000F5F1F4FF70101900020E9F7319784
S1135BF0EE19FF09EE0FFF1FEE0FFF1FEE0FFF1F41
S1135C000E171F0708F389B7806189BF60917B0273
S1135C1070917C0280917D0290917E0220E030EAB6
S1135C204CE859E40E942535811138C089B78F7E2C
S1135C3089BF0E945A050E94070383E1EBE3F1E068
S1135C40DE01119601900D928A95E1F700E010E0D3
S1135C50CE0101967C010FC0B701C8010E944F0418
S1135C609FEF27EE83E0915020408040E1F700C091
S1135C7000000F5F1F4FF70101900020E9F73197F3
S1135C80EE19FF09EE0FFF1FEE0FFF1FEE0FFF1FB0
S1135C900E171F0708F389B7806189BF60917B02E3
S1135CA070917C0280917D0290917E0220E034E329
S1135CB04EE959E40E942535811138C089B78F7E99
S1135CC089BF0E945A050E94070383E1EEE4F1E0D4
S1135CD0DE01119601900D928A95E1F700E010E043
S1135CE0CE0101967C010FC0B701C8010E944F0488
